{
  "_format": "hh-sol-artifact-1",
  "contractName": "NFTMusicPlayer",
  "sourceName": "src/contracts/contracts/NFTMusicPlayer.sol",
  "abi": [
    {
      "inputs": [
        {
          "internalType": "uint256",
          "name": "_royaltyFee",
          "type": "uint256"
        },
        {
          "internalType": "address",
          "name": "_artist",
          "type": "address"
        },
        {
          "internalType": "uint256[]",
          "name": "_prices",
          "type": "uint256[]"
        }
      ],
      "stateMutability": "payable",
      "type": "constructor"
    },
    {
      "anonymous": false,
      "inputs": [
        {
          "indexed": true,
          "internalType": "address",
          "name": "owner",
          "type": "address"
        },
        {
          "indexed": true,
          "internalType": "address",
          "name": "approved",
          "type": "address"
        },
        {
          "indexed": true,
          "internalType": "uint256",
          "name": "tokenId",
          "type": "uint256"
        }
      ],
      "name": "Approval",
      "type": "event"
    },
    {
      "anonymous": false,
      "inputs": [
        {
          "indexed": true,
          "internalType": "address",
          "name": "owner",
          "type": "address"
        },
        {
          "indexed": true,
          "internalType": "address",
          "name": "operator",
          "type": "address"
        },
        {
          "indexed": false,
          "internalType": "bool",
          "name": "approved",
          "type": "bool"
        }
      ],
      "name": "ApprovalForAll",
      "type": "event"
    },
    {
      "anonymous": false,
      "inputs": [
        {
          "indexed": true,
          "internalType": "uint256",
          "name": "tokenId",
          "type": "uint256"
        },
        {
          "indexed": true,
          "internalType": "address",
          "name": "seller",
          "type": "address"
        },
        {
          "indexed": false,
          "internalType": "address",
          "name": "buyer",
          "type": "address"
        },
        {
          "indexed": false,
          "internalType": "uint256",
          "name": "price",
          "type": "uint256"
        }
      ],
      "name": "MarketItemBought",
      "type": "event"
    },
    {
      "anonymous": false,
      "inputs": [
        {
          "indexed": true,
          "internalType": "uint256",
          "name": "tokenId",
          "type": "uint256"
        },
        {
          "indexed": true,
          "internalType": "address",
          "name": "seller",
          "type": "address"
        },
        {
          "indexed": false,
          "internalType": "uint256",
          "name": "price",
          "type": "uint256"
        }
      ],
      "name": "MarketItemRelisted",
      "type": "event"
    },
    {
      "anonymous": false,
      "inputs": [
        {
          "indexed": true,
          "internalType": "address",
          "name": "previousOwner",
          "type": "address"
        },
        {
          "indexed": true,
          "internalType": "address",
          "name": "newOwner",
          "type": "address"
        }
      ],
      "name": "OwnershipTransferred",
      "type": "event"
    },
    {
      "anonymous": false,
      "inputs": [
        {
          "indexed": true,
          "internalType": "address",
          "name": "from",
          "type": "address"
        },
        {
          "indexed": true,
          "internalType": "address",
          "name": "to",
          "type": "address"
        },
        {
          "indexed": true,
          "internalType": "uint256",
          "name": "tokenId",
          "type": "uint256"
        }
      ],
      "name": "Transfer",
      "type": "event"
    },
    {
      "inputs": [
        {
          "internalType": "address",
          "name": "to",
          "type": "address"
        },
        {
          "internalType": "uint256",
          "name": "tokenId",
          "type": "uint256"
        }
      ],
      "name": "approve",
      "outputs": [],
      "stateMutability": "nonpayable",
      "type": "function"
    },
    {
      "inputs": [],
      "name": "artist",
      "outputs": [
        {
          "internalType": "address",
          "name": "",
          "type": "address"
        }
      ],
      "stateMutability": "view",
      "type": "function"
    },
    {
      "inputs": [
        {
          "internalType": "address",
          "name": "owner",
          "type": "address"
        }
      ],
      "name": "balanceOf",
      "outputs": [
        {
          "internalType": "uint256",
          "name": "",
          "type": "uint256"
        }
      ],
      "stateMutability": "view",
      "type": "function"
    },
    {
      "inputs": [],
      "name": "baseExtension",
      "outputs": [
        {
          "internalType": "string",
          "name": "",
          "type": "string"
        }
      ],
      "stateMutability": "view",
      "type": "function"
    },
    {
      "inputs": [],
      "name": "baseURI",
      "outputs": [
        {
          "internalType": "string",
          "name": "",
          "type": "string"
        }
      ],
      "stateMutability": "view",
      "type": "function"
    },
    {
      "inputs": [
        {
          "internalType": "uint256",
          "name": "_tokenId",
          "type": "uint256"
        }
      ],
      "name": "buyToken",
      "outputs": [],
      "stateMutability": "payable",
      "type": "function"
    },
    {
      "inputs": [],
      "name": "getAllUnsoldTokens",
      "outputs": [
        {
          "components": [
            {
              "internalType": "uint256",
              "name": "tokenId",
              "type": "uint256"
            },
            {
              "internalType": "address payable",
              "name": "seller",
              "type": "address"
            },
            {
              "internalType": "uint256",
              "name": "price",
              "type": "uint256"
            }
          ],
          "internalType": "struct NFTMusicPlayer.MarketItem[]",
          "name": "",
          "type": "tuple[]"
        }
      ],
      "stateMutability": "view",
      "type": "function"
    },
    {
      "inputs": [
        {
          "internalType": "uint256",
          "name": "tokenId",
          "type": "uint256"
        }
      ],
      "name": "getApproved",
      "outputs": [
        {
          "internalType": "address",
          "name": "",
          "type": "address"
        }
      ],
      "stateMutability": "view",
      "type": "function"
    },
    {
      "inputs": [],
      "name": "getMyTokens",
      "outputs": [
        {
          "components": [
            {
              "internalType": "uint256",
              "name": "tokenId",
              "type": "uint256"
            },
            {
              "internalType": "address payable",
              "name": "seller",
              "type": "address"
            },
            {
              "internalType": "uint256",
              "name": "price",
              "type": "uint256"
            }
          ],
          "internalType": "struct NFTMusicPlayer.MarketItem[]",
          "name": "",
          "type": "tuple[]"
        }
      ],
      "stateMutability": "view",
      "type": "function"
    },
    {
      "inputs": [
        {
          "internalType": "address",
          "name": "owner",
          "type": "address"
        },
        {
          "internalType": "address",
          "name": "operator",
          "type": "address"
        }
      ],
      "name": "isApprovedForAll",
      "outputs": [
        {
          "internalType": "bool",
          "name": "",
          "type": "bool"
        }
      ],
      "stateMutability": "view",
      "type": "function"
    },
    {
      "inputs": [
        {
          "internalType": "uint256",
          "name": "",
          "type": "uint256"
        }
      ],
      "name": "marketItems",
      "outputs": [
        {
          "internalType": "uint256",
          "name": "tokenId",
          "type": "uint256"
        },
        {
          "internalType": "address payable",
          "name": "seller",
          "type": "address"
        },
        {
          "internalType": "uint256",
          "name": "price",
          "type": "uint256"
        }
      ],
      "stateMutability": "view",
      "type": "function"
    },
    {
      "inputs": [],
      "name": "name",
      "outputs": [
        {
          "internalType": "string",
          "name": "",
          "type": "string"
        }
      ],
      "stateMutability": "view",
      "type": "function"
    },
    {
      "inputs": [],
      "name": "owner",
      "outputs": [
        {
          "internalType": "address",
          "name": "",
          "type": "address"
        }
      ],
      "stateMutability": "view",
      "type": "function"
    },
    {
      "inputs": [
        {
          "internalType": "uint256",
          "name": "tokenId",
          "type": "uint256"
        }
      ],
      "name": "ownerOf",
      "outputs": [
        {
          "internalType": "address",
          "name": "",
          "type": "address"
        }
      ],
      "stateMutability": "view",
      "type": "function"
    },
    {
      "inputs": [],
      "name": "renounceOwnership",
      "outputs": [],
      "stateMutability": "nonpayable",
      "type": "function"
    },
    {
      "inputs": [
        {
          "internalType": "uint256",
          "name": "_tokenId",
          "type": "uint256"
        },
        {
          "internalType": "uint256",
          "name": "_price",
          "type": "uint256"
        }
      ],
      "name": "resellToken",
      "outputs": [],
      "stateMutability": "payable",
      "type": "function"
    },
    {
      "inputs": [],
      "name": "royaltyFee",
      "outputs": [
        {
          "internalType": "uint256",
          "name": "",
          "type": "uint256"
        }
      ],
      "stateMutability": "view",
      "type": "function"
    },
    {
      "inputs": [
        {
          "internalType": "address",
          "name": "from",
          "type": "address"
        },
        {
          "internalType": "address",
          "name": "to",
          "type": "address"
        },
        {
          "internalType": "uint256",
          "name": "tokenId",
          "type": "uint256"
        }
      ],
      "name": "safeTransferFrom",
      "outputs": [],
      "stateMutability": "nonpayable",
      "type": "function"
    },
    {
      "inputs": [
        {
          "internalType": "address",
          "name": "from",
          "type": "address"
        },
        {
          "internalType": "address",
          "name": "to",
          "type": "address"
        },
        {
          "internalType": "uint256",
          "name": "tokenId",
          "type": "uint256"
        },
        {
          "internalType": "bytes",
          "name": "_data",
          "type": "bytes"
        }
      ],
      "name": "safeTransferFrom",
      "outputs": [],
      "stateMutability": "nonpayable",
      "type": "function"
    },
    {
      "inputs": [
        {
          "internalType": "address",
          "name": "operator",
          "type": "address"
        },
        {
          "internalType": "bool",
          "name": "approved",
          "type": "bool"
        }
      ],
      "name": "setApprovalForAll",
      "outputs": [],
      "stateMutability": "nonpayable",
      "type": "function"
    },
    {
      "inputs": [
        {
          "internalType": "bytes4",
          "name": "interfaceId",
          "type": "bytes4"
        }
      ],
      "name": "supportsInterface",
      "outputs": [
        {
          "internalType": "bool",
          "name": "",
          "type": "bool"
        }
      ],
      "stateMutability": "view",
      "type": "function"
    },
    {
      "inputs": [],
      "name": "symbol",
      "outputs": [
        {
          "internalType": "string",
          "name": "",
          "type": "string"
        }
      ],
      "stateMutability": "view",
      "type": "function"
    },
    {
      "inputs": [
        {
          "internalType": "uint256",
          "name": "tokenId",
          "type": "uint256"
        }
      ],
      "name": "tokenURI",
      "outputs": [
        {
          "internalType": "string",
          "name": "",
          "type": "string"
        }
      ],
      "stateMutability": "view",
      "type": "function"
    },
    {
      "inputs": [
        {
          "internalType": "address",
          "name": "from",
          "type": "address"
        },
        {
          "internalType": "address",
          "name": "to",
          "type": "address"
        },
        {
          "internalType": "uint256",
          "name": "tokenId",
          "type": "uint256"
        }
      ],
      "name": "transferFrom",
      "outputs": [],
      "stateMutability": "nonpayable",
      "type": "function"
    },
    {
      "inputs": [
        {
          "internalType": "address",
          "name": "newOwner",
          "type": "address"
        }
      ],
      "name": "transferOwnership",
      "outputs": [],
      "stateMutability": "nonpayable",
      "type": "function"
    },
    {
      "inputs": [
        {
          "internalType": "uint256",
          "name": "_royaltyFee",
          "type": "uint256"
        }
      ],
      "name": "updateRoyaltyFee",
      "outputs": [],
      "stateMutability": "nonpayable",
      "type": "function"
    }
  ],
  "bytecode": "0x608060405260405180608001604052806059815260200162004770605991396007908051906020019062000035929190620006f9565b506040518060400160405280600581526020017f2e6a736f6e0000000000000000000000000000000000000000000000000000008152506008908051906020019062000083929190620006f9565b50604051620047c9380380620047c98339818101604052810190620000a9919062000879565b6040518060400160405280600681526020017f44417070466900000000000000000000000000000000000000000000000000008152506040518060400160405280600481526020017f444150500000000000000000000000000000000000000000000000000000000081525081600090805190602001906200012d929190620006f9565b50806001908051906020019062000146929190620006f9565b505050620001696200015d620003d460201b60201c565b620003dc60201b60201c565b3483825162000179919062000ad2565b1115620001bd576040517f08c379a0000000000000000000000000000000000000000000000000000000008152600401620001b490620009c8565b60405180910390fd5b82600a8190555081600960006101000a81548173ffffffffffffffffffffffffffffffffffffffff021916908373ffffffffffffffffffffffffffffffffffffffff16021790555060005b81518160ff161015620003ca576000828260ff168151811062000254577f4e487b7100000000000000000000000000000000000000000000000000000000600052603260045260246000fd5b6020026020010151116200029f576040517f08c379a00000000000000000000000000000000000000000000000000000000081526004016200029690620009ea565b60405180910390fd5b620002b4308260ff16620004a260201b60201c565b600b60405180606001604052808360ff1681526020013373ffffffffffffffffffffffffffffffffffffffff168152602001848460ff168151811062000323577f4e487b7100000000000000000000000000000000000000000000000000000000600052603260045260246000fd5b602002602001015181525090806001815401808255809150506001900390600052602060002090600302016000909190919091506000820151816000015560208201518160010160006101000a81548173ffffffffffffffffffffffffffffffffffffffff021916908373ffffffffffffffffffffffffffffffffffffffff1602179055506040820151816002015550508080620003c19062000bea565b91505062000208565b5050505062000ddb565b600033905090565b6000600660009054906101000a900473ffffffffffffffffffffffffffffffffffffffff16905081600660006101000a81548173ffffffffffffffffffffffffffffffffffffffff021916908373ffffffffffffffffffffffffffffffffffffffff1602179055508173ffffffffffffffffffffffffffffffffffffffff168173ffffffffffffffffffffffffffffffffffffffff167f8be0079c531659141344cd1fd0a4f28419497f9722a3daafe3b4186f6b6457e060405160405180910390a35050565b600073ffffffffffffffffffffffffffffffffffffffff168273ffffffffffffffffffffffffffffffffffffffff16141562000515576040517f08c379a00000000000000000000000000000000000000000000000000000000081526004016200050c90620009a6565b60405180910390fd5b62000526816200068860201b60201c565b1562000569576040517f08c379a0000000000000000000000000000000000000000000000000000000008152600401620005609062000984565b60405180910390fd5b6200057d60008383620006f460201b60201c565b6001600360008473ffffffffffffffffffffffffffffffffffffffff1673ffffffffffffffffffffffffffffffffffffffff1681526020019081526020016000206000828254620005cf919062000a75565b92505081905550816002600083815260200190815260200160002060006101000a81548173ffffffffffffffffffffffffffffffffffffffff021916908373ffffffffffffffffffffffffffffffffffffffff160217905550808273ffffffffffffffffffffffffffffffffffffffff16600073ffffffffffffffffffffffffffffffffffffffff167fddf252ad1be2c89b69c2b068fc378daa952ba7f163c4a11628f55a4df523b3ef60405160405180910390a45050565b60008073ffffffffffffffffffffffffffffffffffffffff166002600084815260200190815260200160002060009054906101000a900473ffffffffffffffffffffffffffffffffffffffff1673ffffffffffffffffffffffffffffffffffffffff1614159050919050565b505050565b828054620007079062000b7e565b90600052602060002090601f0160209004810192826200072b576000855562000777565b82601f106200074657805160ff191683800117855562000777565b8280016001018555821562000777579182015b828111156200077657825182559160200191906001019062000759565b5b5090506200078691906200078a565b5090565b5b80821115620007a55760008160009055506001016200078b565b5090565b6000620007c0620007ba8462000a35565b62000a0c565b90508083825260208201905082856020860282011115620007e057600080fd5b60005b85811015620008145781620007f9888262000862565b845260208401935060208301925050600181019050620007e3565b5050509392505050565b6000815190506200082f8162000da7565b92915050565b600082601f8301126200084757600080fd5b815162000859848260208601620007a9565b91505092915050565b600081519050620008738162000dc1565b92915050565b6000806000606084860312156200088f57600080fd5b60006200089f8682870162000862565b9350506020620008b2868287016200081e565b925050604084015167ffffffffffffffff811115620008d057600080fd5b620008de8682870162000835565b9150509250925092565b6000620008f7601c8362000a64565b9150620009048262000cb7565b602082019050919050565b60006200091e60208362000a64565b91506200092b8262000ce0565b602082019050919050565b60006200094560468362000a64565b9150620009528262000d09565b606082019050919050565b60006200096c601c8362000a64565b9150620009798262000d7e565b602082019050919050565b600060208201905081810360008301526200099f81620008e8565b9050919050565b60006020820190508181036000830152620009c1816200090f565b9050919050565b60006020820190508181036000830152620009e38162000936565b9050919050565b6000602082019050818103600083015262000a05816200095d565b9050919050565b600062000a1862000a2b565b905062000a26828262000bb4565b919050565b6000604051905090565b600067ffffffffffffffff82111562000a535762000a5262000c77565b5b602082029050602081019050919050565b600082825260208201905092915050565b600062000a828262000b67565b915062000a8f8362000b67565b9250827fffffffffffffffffffffffffffffffffffffffffffffffffffffffffffffffff0382111562000ac75762000ac662000c19565b5b828201905092915050565b600062000adf8262000b67565b915062000aec8362000b67565b9250817fffffffffffffffffffffffffffffffffffffffffffffffffffffffffffffffff048311821515161562000b285762000b2762000c19565b5b828202905092915050565b600062000b408262000b47565b9050919050565b600073ffffffffffffffffffffffffffffffffffffffff82169050919050565b6000819050919050565b600060ff82169050919050565b6000600282049050600182168062000b9757607f821691505b6020821081141562000bae5762000bad62000c48565b5b50919050565b62000bbf8262000ca6565b810181811067ffffffffffffffff8211171562000be15762000be062000c77565b5b80604052505050565b600062000bf78262000b71565b915060ff82141562000c0e5762000c0d62000c19565b5b600182019050919050565b7f4e487b7100000000000000000000000000000000000000000000000000000000600052601160045260246000fd5b7f4e487b7100000000000000000000000000000000000000000000000000000000600052602260045260246000fd5b7f4e487b7100000000000000000000000000000000000000000000000000000000600052604160045260246000fd5b6000601f19601f8301169050919050565b7f4552433732313a20746f6b656e20616c7265616479206d696e74656400000000600082015250565b7f4552433732313a206d696e7420746f20746865207a65726f2061646472657373600082015250565b7f4465706c6f796572206d7573742070617920726f79616c74792066656520666f60008201527f72206561636820746f6b656e206c6973746564206f6e20746865206d61726b6560208201527f74706c6163650000000000000000000000000000000000000000000000000000604082015250565b7f5072696365206d7573742062652067726561746572207468616e203000000000600082015250565b62000db28162000b33565b811462000dbe57600080fd5b50565b62000dcc8162000b67565b811462000dd857600080fd5b50565b6139858062000deb6000396000f3fe6080604052600436106101815760003560e01c806370a08231116100d1578063b88d4fde1161008a578063c87b56dd11610064578063c87b56dd14610565578063e219fc75146105a2578063e985e9c5146105be578063f2fde38b146105fb57610181565b8063b88d4fde146104e6578063b8997a971461050f578063c66828621461053a57610181565b806370a08231146103e8578063715018a614610425578063767dd0761461043c5780638da5cb5b1461046757806395d89b4114610492578063a22cb465146104bd57610181565b806342842e0e1161013e57806351f28e141161011857806351f28e14146103165780635b3b136a146103555780636352211e146103805780636c0360eb146103bd57610181565b806342842e0e1461029957806343bc1612146102c25780634e83be47146102ed57610181565b806301ffc9a71461018657806306fdde03146101c3578063081812fc146101ee578063095ea7b31461022b57806323b872dd146102545780632d296bf11461027d575b600080fd5b34801561019257600080fd5b506101ad60048036038101906101a89190612809565b610624565b6040516101ba9190612d9e565b60405180910390f35b3480156101cf57600080fd5b506101d8610706565b6040516101e59190612db9565b60405180910390f35b3480156101fa57600080fd5b506102156004803603810190610210919061285b565b610798565b6040516102229190612cec565b60405180910390f35b34801561023757600080fd5b50610252600480360381019061024d91906127cd565b61081d565b005b34801561026057600080fd5b5061027b600480360381019061027691906126c7565b610935565b005b6102976004803603810190610292919061285b565b610995565b005b3480156102a557600080fd5b506102c060048036038101906102bb91906126c7565b610c35565b005b3480156102ce57600080fd5b506102d7610c55565b6040516102e49190612cec565b60405180910390f35b3480156102f957600080fd5b50610314600480360381019061030f919061285b565b610c7b565b005b34801561032257600080fd5b5061033d6004803603810190610338919061285b565b610d01565b60405161034c93929190613016565b60405180910390f35b34801561036157600080fd5b5061036a610d5b565b6040516103779190612d7c565b60405180910390f35b34801561038c57600080fd5b506103a760048036038101906103a2919061285b565b610f66565b6040516103b49190612cec565b60405180910390f35b3480156103c957600080fd5b506103d2611018565b6040516103df9190612db9565b60405180910390f35b3480156103f457600080fd5b5061040f600480360381019061040a9190612662565b6110a6565b60405161041c9190612ffb565b60405180910390f35b34801561043157600080fd5b5061043a61115e565b005b34801561044857600080fd5b506104516111e6565b60405161045e9190612d7c565b60405180910390f35b34801561047357600080fd5b5061047c611454565b6040516104899190612cec565b60405180910390f35b34801561049e57600080fd5b506104a761147e565b6040516104b49190612db9565b60405180910390f35b3480156104c957600080fd5b506104e460048036038101906104df9190612791565b611510565b005b3480156104f257600080fd5b5061050d60048036038101906105089190612716565b611691565b005b34801561051b57600080fd5b506105246116f3565b6040516105319190612ffb565b60405180910390f35b34801561054657600080fd5b5061054f6116f9565b60405161055c9190612db9565b60405180910390f35b34801561057157600080fd5b5061058c6004803603810190610587919061285b565b611787565b6040516105999190612db9565b60405180910390f35b6105bc60048036038101906105b79190612884565b61182e565b005b3480156105ca57600080fd5b506105e560048036038101906105e0919061268b565b6119ed565b6040516105f29190612d9e565b60405180910390f35b34801561060757600080fd5b50610622600480360381019061061d9190612662565b611a81565b005b60007f80ac58cd000000000000000000000000000000000000000000000000000000007bffffffffffffffffffffffffffffffffffffffffffffffffffffffff1916827bffffffffffffffffffffffffffffffffffffffffffffffffffffffff191614806106ef57507f5b5e139f000000000000000000000000000000000000000000000000000000007bffffffffffffffffffffffffffffffffffffffffffffffffffffffff1916827bffffffffffffffffffffffffffffffffffffffffffffffffffffffff1916145b806106ff57506106fe82611b79565b5b9050919050565b606060008054610715906132a2565b80601f0160208091040260200160405190810160405280929190818152602001828054610741906132a2565b801561078e5780601f106107635761010080835404028352916020019161078e565b820191906000526020600020905b81548152906001019060200180831161077157829003601f168201915b5050505050905090565b60006107a382611be3565b6107e2576040517f08c379a00000000000000000000000000000000000000000000000000000000081526004016107d990612f3b565b60405180910390fd5b6004600083815260200190815260200160002060009054906101000a900473ffffffffffffffffffffffffffffffffffffffff169050919050565b600061082882610f66565b90508073ffffffffffffffffffffffffffffffffffffffff168373ffffffffffffffffffffffffffffffffffffffff161415610899576040517f08c379a000000000000000000000000000000000000000000000000000000000815260040161089090612fbb565b60405180910390fd5b8073ffffffffffffffffffffffffffffffffffffffff166108b8611c4f565b73ffffffffffffffffffffffffffffffffffffffff1614806108e757506108e6816108e1611c4f565b6119ed565b5b610926576040517f08c379a000000000000000000000000000000000000000000000000000000000815260040161091d90612ebb565b60405180910390fd5b6109308383611c57565b505050565b610946610940611c4f565b82611d10565b610985576040517f08c379a000000000000000000000000000000000000000000000000000000000815260040161097c90612fdb565b60405180910390fd5b610990838383611dee565b505050565b6000600b82815481106109d1577f4e487b7100000000000000000000000000000000000000000000000000000000600052603260045260246000fd5b90600052602060002090600302016002015490506000600b8381548110610a21577f4e487b7100000000000000000000000000000000000000000000000000000000600052603260045260246000fd5b906000526020600020906003020160010160009054906101000a900473ffffffffffffffffffffffffffffffffffffffff169050813414610a97576040517f08c379a0000000000000000000000000000000000000000000000000000000008152600401610a8e90612f1b565b60405180910390fd5b6000600b8481548110610ad3577f4e487b7100000000000000000000000000000000000000000000000000000000600052603260045260246000fd5b906000526020600020906003020160010160006101000a81548173ffffffffffffffffffffffffffffffffffffffff021916908373ffffffffffffffffffffffffffffffffffffffff160217905550610b2d303385611dee565b600960009054906101000a900473ffffffffffffffffffffffffffffffffffffffff1673ffffffffffffffffffffffffffffffffffffffff166108fc600a549081150290604051600060405180830381858888f19350505050158015610b97573d6000803e3d6000fd5b508073ffffffffffffffffffffffffffffffffffffffff166108fc349081150290604051600060405180830381858888f19350505050158015610bde573d6000803e3d6000fd5b508073ffffffffffffffffffffffffffffffffffffffff16837fd356b8423ef89ccba8e4f1dbeccc60b41825fd97d432f2e6a6dbd11ae6ecec113385604051610c28929190612d53565b60405180910390a3505050565b610c5083838360405180602001604052806000815250611691565b505050565b600960009054906101000a900473ffffffffffffffffffffffffffffffffffffffff1681565b610c83611c4f565b73ffffffffffffffffffffffffffffffffffffffff16610ca1611454565b73ffffffffffffffffffffffffffffffffffffffff1614610cf7576040517f08c379a0000000000000000000000000000000000000000000000000000000008152600401610cee90612f5b565b60405180910390fd5b80600a8190555050565b600b8181548110610d1157600080fd5b90600052602060002090600302016000915090508060000154908060010160009054906101000a900473ffffffffffffffffffffffffffffffffffffffff16908060020154905083565b60606000610d68336110a6565b905060008167ffffffffffffffff811115610dac577f4e487b7100000000000000000000000000000000000000000000000000000000600052604160045260246000fd5b604051908082528060200260200182016040528015610de557816020015b610dd261255a565b815260200190600190039081610dca5790505b509050600080600090505b600b80549050811015610f5c573373ffffffffffffffffffffffffffffffffffffffff16610e1d82610f66565b73ffffffffffffffffffffffffffffffffffffffff161415610f4957600b8181548110610e73577f4e487b7100000000000000000000000000000000000000000000000000000000600052603260045260246000fd5b9060005260206000209060030201604051806060016040529081600082015481526020016001820160009054906101000a900473ffffffffffffffffffffffffffffffffffffffff1673ffffffffffffffffffffffffffffffffffffffff1673ffffffffffffffffffffffffffffffffffffffff168152602001600282015481525050838381518110610f2f577f4e487b7100000000000000000000000000000000000000000000000000000000600052603260045260246000fd5b60200260200101819052508180610f4590613305565b9250505b8080610f5490613305565b915050610df0565b5081935050505090565b6000806002600084815260200190815260200160002060009054906101000a900473ffffffffffffffffffffffffffffffffffffffff169050600073ffffffffffffffffffffffffffffffffffffffff168173ffffffffffffffffffffffffffffffffffffffff16141561100f576040517f08c379a000000000000000000000000000000000000000000000000000000000815260040161100690612efb565b60405180910390fd5b80915050919050565b60078054611025906132a2565b80601f0160208091040260200160405190810160405280929190818152602001828054611051906132a2565b801561109e5780601f106110735761010080835404028352916020019161109e565b820191906000526020600020905b81548152906001019060200180831161108157829003601f168201915b505050505081565b60008073ffffffffffffffffffffffffffffffffffffffff168273ffffffffffffffffffffffffffffffffffffffff161415611117576040517f08c379a000000000000000000000000000000000000000000000000000000000815260040161110e90612edb565b60405180910390fd5b600360008373ffffffffffffffffffffffffffffffffffffffff1673ffffffffffffffffffffffffffffffffffffffff168152602001908152602001600020549050919050565b611166611c4f565b73ffffffffffffffffffffffffffffffffffffffff16611184611454565b73ffffffffffffffffffffffffffffffffffffffff16146111da576040517f08c379a00000000000000000000000000000000000000000000000000000000081526004016111d190612f5b565b60405180910390fd5b6111e4600061204a565b565b606060006111f3306110a6565b905060008167ffffffffffffffff811115611237577f4e487b7100000000000000000000000000000000000000000000000000000000600052604160045260246000fd5b60405190808252806020026020018201604052801561127057816020015b61125d61255a565b8152602001906001900390816112555790505b509050600080600090505b600b8054905081101561144a57600073ffffffffffffffffffffffffffffffffffffffff16600b82815481106112da577f4e487b7100000000000000000000000000000000000000000000000000000000600052603260045260246000fd5b906000526020600020906003020160010160009054906101000a900473ffffffffffffffffffffffffffffffffffffffff1673ffffffffffffffffffffffffffffffffffffffff161461143757600b8181548110611361577f4e487b7100000000000000000000000000000000000000000000000000000000600052603260045260246000fd5b9060005260206000209060030201604051806060016040529081600082015481526020016001820160009054906101000a900473ffffffffffffffffffffffffffffffffffffffff1673ffffffffffffffffffffffffffffffffffffffff1673ffffffffffffffffffffffffffffffffffffffff16815260200160028201548152505083838151811061141d577f4e487b7100000000000000000000000000000000000000000000000000000000600052603260045260246000fd5b6020026020010181905250818061143390613305565b9250505b808061144290613305565b91505061127b565b5081935050505090565b6000600660009054906101000a900473ffffffffffffffffffffffffffffffffffffffff16905090565b60606001805461148d906132a2565b80601f01602080910402602001604051908101604052809291908181526020018280546114b9906132a2565b80156115065780601f106114db57610100808354040283529160200191611506565b820191906000526020600020905b8154815290600101906020018083116114e957829003601f168201915b5050505050905090565b611518611c4f565b73ffffffffffffffffffffffffffffffffffffffff168273ffffffffffffffffffffffffffffffffffffffff161415611586576040517f08c379a000000000000000000000000000000000000000000000000000000000815260040161157d90612e7b565b60405180910390fd5b8060056000611593611c4f565b73ffffffffffffffffffffffffffffffffffffffff1673ffffffffffffffffffffffffffffffffffffffff16815260200190815260200160002060008473ffffffffffffffffffffffffffffffffffffffff1673ffffffffffffffffffffffffffffffffffffffff16815260200190815260200160002060006101000a81548160ff0219169083151502179055508173ffffffffffffffffffffffffffffffffffffffff16611640611c4f565b73ffffffffffffffffffffffffffffffffffffffff167f17307eab39ab6107e8899845ad3d59bd9653f200f220920489ca2b5937696c31836040516116859190612d9e565b60405180910390a35050565b6116a261169c611c4f565b83611d10565b6116e1576040517f08c379a00000000000000000000000000000000000000000000000000000000081526004016116d890612fdb565b60405180910390fd5b6116ed84848484612110565b50505050565b600a5481565b60088054611706906132a2565b80601f0160208091040260200160405190810160405280929190818152602001828054611732906132a2565b801561177f5780601f106117545761010080835404028352916020019161177f565b820191906000526020600020905b81548152906001019060200180831161176257829003601f168201915b505050505081565b606061179282611be3565b6117d1576040517f08c379a00000000000000000000000000000000000000000000000000000000081526004016117c890612f9b565b60405180910390fd5b60006117db61216c565b905060008151116117fb5760405180602001604052806000815250611826565b80611805846121fe565b604051602001611816929190612cc8565b6040516020818303038152906040525b915050919050565b600a543414611872576040517f08c379a000000000000000000000000000000000000000000000000000000000815260040161186990612e3b565b60405180910390fd5b600081116118b5576040517f08c379a00000000000000000000000000000000000000000000000000000000081526004016118ac90612ddb565b60405180910390fd5b80600b83815481106118f0577f4e487b7100000000000000000000000000000000000000000000000000000000600052603260045260246000fd5b90600052602060002090600302016002018190555033600b8381548110611940577f4e487b7100000000000000000000000000000000000000000000000000000000600052603260045260246000fd5b906000526020600020906003020160010160006101000a81548173ffffffffffffffffffffffffffffffffffffffff021916908373ffffffffffffffffffffffffffffffffffffffff16021790555061199a333084611dee565b3373ffffffffffffffffffffffffffffffffffffffff16827fb2ba12d2566848b13548a3741edb565b69d3cbce7796959cd67431610207eb13836040516119e19190612ffb565b60405180910390a35050565b6000600560008473ffffffffffffffffffffffffffffffffffffffff1673ffffffffffffffffffffffffffffffffffffffff16815260200190815260200160002060008373ffffffffffffffffffffffffffffffffffffffff1673ffffffffffffffffffffffffffffffffffffffff16815260200190815260200160002060009054906101000a900460ff16905092915050565b611a89611c4f565b73ffffffffffffffffffffffffffffffffffffffff16611aa7611454565b73ffffffffffffffffffffffffffffffffffffffff1614611afd576040517f08c379a0000000000000000000000000000000000000000000000000000000008152600401611af490612f5b565b60405180910390fd5b600073ffffffffffffffffffffffffffffffffffffffff168173ffffffffffffffffffffffffffffffffffffffff161415611b6d576040517f08c379a0000000000000000000000000000000000000000000000000000000008152600401611b6490612e1b565b60405180910390fd5b611b768161204a565b50565b60007f01ffc9a7000000000000000000000000000000000000000000000000000000007bffffffffffffffffffffffffffffffffffffffffffffffffffffffff1916827bffffffffffffffffffffffffffffffffffffffffffffffffffffffff1916149050919050565b60008073ffffffffffffffffffffffffffffffffffffffff166002600084815260200190815260200160002060009054906101000a900473ffffffffffffffffffffffffffffffffffffffff1673ffffffffffffffffffffffffffffffffffffffff1614159050919050565b600033905090565b816004600083815260200190815260200160002060006101000a81548173ffffffffffffffffffffffffffffffffffffffff021916908373ffffffffffffffffffffffffffffffffffffffff160217905550808273ffffffffffffffffffffffffffffffffffffffff16611cca83610f66565b73ffffffffffffffffffffffffffffffffffffffff167f8c5be1e5ebec7d5bd14f71427d1e84f3dd0314c0f7b2291e5b200ac8c7c3b92560405160405180910390a45050565b6000611d1b82611be3565b611d5a576040517f08c379a0000000000000000000000000000000000000000000000000000000008152600401611d5190612e9b565b60405180910390fd5b6000611d6583610f66565b90508073ffffffffffffffffffffffffffffffffffffffff168473ffffffffffffffffffffffffffffffffffffffff161480611dd457508373ffffffffffffffffffffffffffffffffffffffff16611dbc84610798565b73ffffffffffffffffffffffffffffffffffffffff16145b80611de55750611de481856119ed565b5b91505092915050565b8273ffffffffffffffffffffffffffffffffffffffff16611e0e82610f66565b73ffffffffffffffffffffffffffffffffffffffff1614611e64576040517f08c379a0000000000000000000000000000000000000000000000000000000008152600401611e5b90612f7b565b60405180910390fd5b600073ffffffffffffffffffffffffffffffffffffffff168273ffffffffffffffffffffffffffffffffffffffff161415611ed4576040517f08c379a0000000000000000000000000000000000000000000000000000000008152600401611ecb90612e5b565b60405180910390fd5b611edf8383836123ab565b611eea600082611c57565b6001600360008573ffffffffffffffffffffffffffffffffffffffff1673ffffffffffffffffffffffffffffffffffffffff1681526020019081526020016000206000828254611f3a91906131a6565b925050819055506001600360008473ffffffffffffffffffffffffffffffffffffffff1673ffffffffffffffffffffffffffffffffffffffff1681526020019081526020016000206000828254611f91919061311f565b92505081905550816002600083815260200190815260200160002060006101000a81548173ffffffffffffffffffffffffffffffffffffffff021916908373ffffffffffffffffffffffffffffffffffffffff160217905550808273ffffffffffffffffffffffffffffffffffffffff168473ffffffffffffffffffffffffffffffffffffffff167fddf252ad1be2c89b69c2b068fc378daa952ba7f163c4a11628f55a4df523b3ef60405160405180910390a4505050565b6000600660009054906101000a900473ffffffffffffffffffffffffffffffffffffffff16905081600660006101000a81548173ffffffffffffffffffffffffffffffffffffffff021916908373ffffffffffffffffffffffffffffffffffffffff1602179055508173ffffffffffffffffffffffffffffffffffffffff168173ffffffffffffffffffffffffffffffffffffffff167f8be0079c531659141344cd1fd0a4f28419497f9722a3daafe3b4186f6b6457e060405160405180910390a35050565b61211b848484611dee565b612127848484846123b0565b612166576040517f08c379a000000000000000000000000000000000000000000000000000000000815260040161215d90612dfb565b60405180910390fd5b50505050565b60606007805461217b906132a2565b80601f01602080910402602001604051908101604052809291908181526020018280546121a7906132a2565b80156121f45780601f106121c9576101008083540402835291602001916121f4565b820191906000526020600020905b8154815290600101906020018083116121d757829003601f168201915b5050505050905090565b60606000821415612246576040518060400160405280600181526020017f300000000000000000000000000000000000000000000000000000000000000081525090506123a6565b600082905060005b6000821461227857808061226190613305565b915050600a826122719190613175565b915061224e565b60008167ffffffffffffffff8111156122ba577f4e487b7100000000000000000000000000000000000000000000000000000000600052604160045260246000fd5b6040519080825280601f01601f1916602001820160405280156122ec5781602001600182028036833780820191505090505b5090505b6000851461239f5760018261230591906131a6565b9150600a85612314919061334e565b6030612320919061311f565b60f81b81838151811061235c577f4e487b7100000000000000000000000000000000000000000000000000000000600052603260045260246000fd5b60200101907effffffffffffffffffffffffffffffffffffffffffffffffffffffffffffff1916908160001a905350600a856123989190613175565b94506122f0565b8093505050505b919050565b505050565b60006123d18473ffffffffffffffffffffffffffffffffffffffff16612547565b1561253a578373ffffffffffffffffffffffffffffffffffffffff1663150b7a026123fa611c4f565b8786866040518563ffffffff1660e01b815260040161241c9493929190612d07565b602060405180830381600087803b15801561243657600080fd5b505af192505050801561246757506040513d601f19601f820116820180604052508101906124649190612832565b60015b6124ea573d8060008114612497576040519150601f19603f3d011682016040523d82523d6000602084013e61249c565b606091505b506000815114156124e2576040517f08c379a00000000000000000000000000000000000000000000000000000000081526004016124d990612dfb565b60405180910390fd5b805181602001fd5b63150b7a0260e01b7bffffffffffffffffffffffffffffffffffffffffffffffffffffffff1916817bffffffffffffffffffffffffffffffffffffffffffffffffffffffff19161491505061253f565b600190505b949350505050565b600080823b905060008111915050919050565b604051806060016040528060008152602001600073ffffffffffffffffffffffffffffffffffffffff168152602001600081525090565b60006125a461259f84613072565b61304d565b9050828152602081018484840111156125bc57600080fd5b6125c7848285613260565b509392505050565b6000813590506125de816138f3565b92915050565b6000813590506125f38161390a565b92915050565b60008135905061260881613921565b92915050565b60008151905061261d81613921565b92915050565b600082601f83011261263457600080fd5b8135612644848260208601612591565b91505092915050565b60008135905061265c81613938565b92915050565b60006020828403121561267457600080fd5b6000612682848285016125cf565b91505092915050565b6000806040838503121561269e57600080fd5b60006126ac858286016125cf565b92505060206126bd858286016125cf565b9150509250929050565b6000806000606084860312156126dc57600080fd5b60006126ea868287016125cf565b93505060206126fb868287016125cf565b925050604061270c8682870161264d565b9150509250925092565b6000806000806080858703121561272c57600080fd5b600061273a878288016125cf565b945050602061274b878288016125cf565b935050604061275c8782880161264d565b925050606085013567ffffffffffffffff81111561277957600080fd5b61278587828801612623565b91505092959194509250565b600080604083850312156127a457600080fd5b60006127b2858286016125cf565b92505060206127c3858286016125e4565b9150509250929050565b600080604083850312156127e057600080fd5b60006127ee858286016125cf565b92505060206127ff8582860161264d565b9150509250929050565b60006020828403121561281b57600080fd5b6000612829848285016125f9565b91505092915050565b60006020828403121561284457600080fd5b60006128528482850161260e565b91505092915050565b60006020828403121561286d57600080fd5b600061287b8482850161264d565b91505092915050565b6000806040838503121561289757600080fd5b60006128a58582860161264d565b92505060206128b68582860161264d565b9150509250929050565b60006128cc8383612c68565b60608301905092915050565b6128e1816131ec565b82525050565b6128f0816131ec565b82525050565b6128ff816131da565b82525050565b6000612910826130b3565b61291a81856130e1565b9350612925836130a3565b8060005b8381101561295657815161293d88826128c0565b9750612948836130d4565b925050600181019050612929565b5085935050505092915050565b61296c816131fe565b82525050565b600061297d826130be565b61298781856130f2565b935061299781856020860161326f565b6129a08161343b565b840191505092915050565b60006129b6826130c9565b6129c08185613103565b93506129d081856020860161326f565b6129d98161343b565b840191505092915050565b60006129ef826130c9565b6129f98185613114565b9350612a0981856020860161326f565b80840191505092915050565b6000612a22601f83613103565b9150612a2d8261344c565b602082019050919050565b6000612a45603283613103565b9150612a5082613475565b604082019050919050565b6000612a68602683613103565b9150612a73826134c4565b604082019050919050565b6000612a8b601083613103565b9150612a9682613513565b602082019050919050565b6000612aae602483613103565b9150612ab98261353c565b604082019050919050565b6000612ad1601983613103565b9150612adc8261358b565b602082019050919050565b6000612af4602c83613103565b9150612aff826135b4565b604082019050919050565b6000612b17603883613103565b9150612b2282613603565b604082019050919050565b6000612b3a602a83613103565b9150612b4582613652565b604082019050919050565b6000612b5d602983613103565b9150612b68826136a1565b604082019050919050565b6000612b80603e83613103565b9150612b8b826136f0565b604082019050919050565b6000612ba3602c83613103565b9150612bae8261373f565b604082019050919050565b6000612bc6602083613103565b9150612bd18261378e565b602082019050919050565b6000612be9602983613103565b9150612bf4826137b7565b604082019050919050565b6000612c0c602f83613103565b9150612c1782613806565b604082019050919050565b6000612c2f602183613103565b9150612c3a82613855565b604082019050919050565b6000612c52603183613103565b9150612c5d826138a4565b604082019050919050565b606082016000820151612c7e6000850182612caa565b506020820151612c9160208501826128d8565b506040820151612ca46040850182612caa565b50505050565b612cb381613256565b82525050565b612cc281613256565b82525050565b6000612cd482856129e4565b9150612ce082846129e4565b91508190509392505050565b6000602082019050612d0160008301846128f6565b92915050565b6000608082019050612d1c60008301876128f6565b612d2960208301866128f6565b612d366040830185612cb9565b8181036060830152612d488184612972565b905095945050505050565b6000604082019050612d6860008301856128f6565b612d756020830184612cb9565b9392505050565b60006020820190508181036000830152612d968184612905565b905092915050565b6000602082019050612db36000830184612963565b92915050565b60006020820190508181036000830152612dd381846129ab565b905092915050565b60006020820190508181036000830152612df481612a15565b9050919050565b60006020820190508181036000830152612e1481612a38565b9050919050565b60006020820190508181036000830152612e3481612a5b565b9050919050565b60006020820190508181036000830152612e5481612a7e565b9050919050565b60006020820190508181036000830152612e7481612aa1565b9050919050565b60006020820190508181036000830152612e9481612ac4565b9050919050565b60006020820190508181036000830152612eb481612ae7565b9050919050565b60006020820190508181036000830152612ed481612b0a565b9050919050565b60006020820190508181036000830152612ef481612b2d565b9050919050565b60006020820190508181036000830152612f1481612b50565b9050919050565b60006020820190508181036000830152612f3481612b73565b9050919050565b60006020820190508181036000830152612f5481612b96565b9050919050565b60006020820190508181036000830152612f7481612bb9565b9050919050565b60006020820190508181036000830152612f9481612bdc565b9050919050565b60006020820190508181036000830152612fb481612bff565b9050919050565b60006020820190508181036000830152612fd481612c22565b9050919050565b60006020820190508181036000830152612ff481612c45565b9050919050565b60006020820190506130106000830184612cb9565b92915050565b600060608201905061302b6000830186612cb9565b61303860208301856128e7565b6130456040830184612cb9565b949350505050565b6000613057613068565b905061306382826132d4565b919050565b6000604051905090565b600067ffffffffffffffff82111561308d5761308c61340c565b5b6130968261343b565b9050602081019050919050565b6000819050602082019050919050565b600081519050919050565b600081519050919050565b600081519050919050565b6000602082019050919050565b600082825260208201905092915050565b600082825260208201905092915050565b600082825260208201905092915050565b600081905092915050565b600061312a82613256565b915061313583613256565b9250827fffffffffffffffffffffffffffffffffffffffffffffffffffffffffffffffff0382111561316a5761316961337f565b5b828201905092915050565b600061318082613256565b915061318b83613256565b92508261319b5761319a6133ae565b5b828204905092915050565b60006131b182613256565b91506131bc83613256565b9250828210156131cf576131ce61337f565b5b828203905092915050565b60006131e582613236565b9050919050565b60006131f782613236565b9050919050565b60008115159050919050565b60007fffffffff0000000000000000000000000000000000000000000000000000000082169050919050565b600073ffffffffffffffffffffffffffffffffffffffff82169050919050565b6000819050919050565b82818337600083830152505050565b60005b8381101561328d578082015181840152602081019050613272565b8381111561329c576000848401525b50505050565b600060028204905060018216806132ba57607f821691505b602082108114156132ce576132cd6133dd565b5b50919050565b6132dd8261343b565b810181811067ffffffffffffffff821117156132fc576132fb61340c565b5b80604052505050565b600061331082613256565b91507fffffffffffffffffffffffffffffffffffffffffffffffffffffffffffffffff8214156133435761334261337f565b5b600182019050919050565b600061335982613256565b915061336483613256565b925082613374576133736133ae565b5b828206905092915050565b7f4e487b7100000000000000000000000000000000000000000000000000000000600052601160045260246000fd5b7f4e487b7100000000000000000000000000000000000000000000000000000000600052601260045260246000fd5b7f4e487b7100000000000000000000000000000000000000000000000000000000600052602260045260246000fd5b7f4e487b7100000000000000000000000000000000000000000000000000000000600052604160045260246000fd5b6000601f19601f8301169050919050565b7f5072696365206d7573742062652067726561746572207468616e207a65726f00600082015250565b7f4552433732313a207472616e7366657220746f206e6f6e20455243373231526560008201527f63656976657220696d706c656d656e7465720000000000000000000000000000602082015250565b7f4f776e61626c653a206e6577206f776e657220697320746865207a65726f206160008201527f6464726573730000000000000000000000000000000000000000000000000000602082015250565b7f4d7573742070617920726f79616c747900000000000000000000000000000000600082015250565b7f4552433732313a207472616e7366657220746f20746865207a65726f2061646460008201527f7265737300000000000000000000000000000000000000000000000000000000602082015250565b7f4552433732313a20617070726f766520746f2063616c6c657200000000000000600082015250565b7f4552433732313a206f70657261746f7220717565727920666f72206e6f6e657860008201527f697374656e7420746f6b656e0000000000000000000000000000000000000000602082015250565b7f4552433732313a20617070726f76652063616c6c6572206973206e6f74206f7760008201527f6e6572206e6f7220617070726f76656420666f7220616c6c0000000000000000602082015250565b7f4552433732313a2062616c616e636520717565727920666f7220746865207a6560008201527f726f206164647265737300000000000000000000000000000000000000000000602082015250565b7f4552433732313a206f776e657220717565727920666f72206e6f6e657869737460008201527f656e7420746f6b656e0000000000000000000000000000000000000000000000602082015250565b7f506c656173652073656e64207468652061736b696e6720707269636520696e2060008201527f6f7264657220746f20636f6d706c657465207468652070757263686173650000602082015250565b7f4552433732313a20617070726f76656420717565727920666f72206e6f6e657860008201527f697374656e7420746f6b656e0000000000000000000000000000000000000000602082015250565b7f4f776e61626c653a2063616c6c6572206973206e6f7420746865206f776e6572600082015250565b7f4552433732313a207472616e73666572206f6620746f6b656e2074686174206960008201527f73206e6f74206f776e0000000000000000000000000000000000000000000000602082015250565b7f4552433732314d657461646174613a2055524920717565727920666f72206e6f60008201527f6e6578697374656e7420746f6b656e0000000000000000000000000000000000602082015250565b7f4552433732313a20617070726f76616c20746f2063757272656e74206f776e6560008201527f7200000000000000000000000000000000000000000000000000000000000000602082015250565b7f4552433732313a207472616e736665722063616c6c6572206973206e6f74206f60008201527f776e6572206e6f7220617070726f766564000000000000000000000000000000602082015250565b6138fc816131da565b811461390757600080fd5b50565b613913816131fe565b811461391e57600080fd5b50565b61392a8161320a565b811461393557600080fd5b50565b61394181613256565b811461394c57600080fd5b5056fea26469706673582212200311ea6cc202a9fdbd180777fcf64ad2afd778abf7af05088a374dae17e5862464736f6c6343000804003368747470733a2f2f6261667962656964686a6a626a6f6e7971636168757a6c707437737a6e6d683478726c62737061336773746f70356f34376c3667736961666665652e697066732e6e667473746f726167652e6c696e6b2f",
  "linkReferences": {},
  "deployedLinkReferences": {}
}